{
  "abi": [
    {
      "inputs": [],
      "stateMutability": "nonpayable",
      "type": "constructor"
    },
    {
      "inputs": [
        {
          "internalType": "string",
          "name": "ip",
          "type": "string"
        },
        {
          "internalType": "uint256",
          "name": "amount",
          "type": "uint256"
        }
      ],
      "name": "bill",
      "outputs": [],
      "stateMutability": "nonpayable",
      "type": "function"
    },
    {
      "inputs": [
        {
          "internalType": "string",
          "name": "ip",
          "type": "string"
        }
      ],
      "name": "getIp",
      "outputs": [
        {
          "components": [
            {
              "internalType": "bool",
              "name": "enable",
              "type": "bool"
            },
            {
              "internalType": "uint256",
              "name": "stake",
              "type": "uint256"
            },
            {
              "internalType": "address payable",
              "name": "owner",
              "type": "address"
            }
          ],
          "internalType": "struct Ip",
          "name": "",
          "type": "tuple"
        }
      ],
      "stateMutability": "view",
      "type": "function"
    },
    {
      "inputs": [
        {
          "internalType": "string",
          "name": "antenna",
          "type": "string"
        }
      ],
      "name": "getRunning",
      "outputs": [
        {
          "internalType": "bool",
          "name": "",
          "type": "bool"
        }
      ],
      "stateMutability": "view",
      "type": "function"
    },
    {
      "inputs": [],
      "name": "owner",
      "outputs": [
        {
          "internalType": "address",
          "name": "",
          "type": "address"
        }
      ],
      "stateMutability": "view",
      "type": "function"
    },
    {
      "inputs": [],
      "name": "ownerStake",
      "outputs": [
        {
          "internalType": "uint256",
          "name": "",
          "type": "uint256"
        }
      ],
      "stateMutability": "view",
      "type": "function"
    },
    {
      "inputs": [
        {
          "internalType": "string",
          "name": "ip",
          "type": "string"
        },
        {
          "internalType": "bool",
          "name": "enable",
          "type": "bool"
        }
      ],
      "name": "setIp",
      "outputs": [],
      "stateMutability": "nonpayable",
      "type": "function"
    },
    {
      "inputs": [
        {
          "internalType": "address",
          "name": "_owner",
          "type": "address"
        }
      ],
      "name": "setOwner",
      "outputs": [],
      "stateMutability": "nonpayable",
      "type": "function"
    },
    {
      "inputs": [
        {
          "internalType": "string",
          "name": "antenna",
          "type": "string"
        },
        {
          "internalType": "bool",
          "name": "state",
          "type": "bool"
        }
      ],
      "name": "setRunning",
      "outputs": [],
      "stateMutability": "nonpayable",
      "type": "function"
    },
    {
      "inputs": [
        {
          "internalType": "string",
          "name": "ip",
          "type": "string"
        }
      ],
      "name": "stake",
      "outputs": [],
      "stateMutability": "payable",
      "type": "function"
    },
    {
      "inputs": [
        {
          "internalType": "string",
          "name": "ip",
          "type": "string"
        }
      ],
      "name": "unstake",
      "outputs": [],
      "stateMutability": "nonpayable",
      "type": "function"
    },
    {
      "inputs": [],
      "name": "userStake",
      "outputs": [
        {
          "internalType": "uint256",
          "name": "",
          "type": "uint256"
        }
      ],
      "stateMutability": "view",
      "type": "function"
    },
    {
      "inputs": [
        {
          "internalType": "address payable",
          "name": "to",
          "type": "address"
        }
      ],
      "name": "withdraw",
      "outputs": [],
      "stateMutability": "nonpayable",
      "type": "function"
    }
  ],
  "bytecode": "608060405234801561001057600080fd5b50600080546001600160a01b03191633179055610c09806100326000396000f3fe6080604052600436106100a75760003560e01c806360f547071161006457806360f54707146101a35780636fb5d807146101c35780638da5cb5b146101e3578063b4106cdf1461021b578063d8a0ac971461023f578063f03817d91461025f57600080fd5b806313af4035146100ac5780631868291f146100ce5780633a1c4c2f14610120578063453e05351461014057806346f45b8d1461017057806351cff8d914610183575b600080fd5b3480156100b857600080fd5b506100cc6100c7366004610a0d565b610275565b005b3480156100da57600080fd5b506100ee6100e9366004610a7a565b6102ca565b6040805182511515815260208084015190820152918101516001600160a01b0316908201526060015b60405180910390f35b34801561012c57600080fd5b506100cc61013b366004610abc565b61033d565b34801561014c57600080fd5b5061016061015b366004610a7a565b61039f565b6040519015158152602001610117565b6100cc61017e366004610a7a565b6103ce565b34801561018f57600080fd5b506100cc61019e366004610a0d565b61062d565b3480156101af57600080fd5b506100cc6101be366004610abc565b610697565b3480156101cf57600080fd5b506100cc6101de366004610b18565b610720565b3480156101ef57600080fd5b50600054610203906001600160a01b031681565b6040516001600160a01b039091168152602001610117565b34801561022757600080fd5b5061023160045481565b604051908152602001610117565b34801561024b57600080fd5b506100cc61025a366004610a7a565b61089e565b34801561026b57600080fd5b5061023160035481565b6000546001600160a01b031633146102a85760405162461bcd60e51b815260040161029f90610b64565b60405180910390fd5b600080546001600160a01b0319166001600160a01b0392909216919091179055565b604080516060810182526000808252602082018190528183015290516002906102f69085908590610b87565b908152604080519182900360209081018320606084018352805460ff1615158452600181015491840191909152600201546001600160a01b03169082015290505b92915050565b6000546001600160a01b031633146103675760405162461bcd60e51b815260040161029f90610b64565b806001848460405161037a929190610b87565b908152604051908190036020019020805491151560ff19909216919091179055505050565b6000600183836040516103b3929190610b87565b9081526040519081900360200190205460ff16905092915050565b60006001600160a01b0316600283836040516103eb929190610b87565b908152604051908190036020019020600201546001600160a01b03161461052f57336001600160a01b031660028383604051610428929190610b87565b908152604051908190036020019020600201546001600160a01b03161461052a576002828260405161045b929190610b87565b9081526040519081900360200181206002908101546001600160a01b0316916108fc919061048c9086908690610b87565b90815260405190819003602001812060010154801590920291906000818181858888f193505050501580156104c5573d6000803e3d6000fd5b50600282826040516104d8929190610b87565b908152602001604051809103902060010154600360008282546104fb9190610bad565b92505081905550600060028383604051610516929190610b87565b908152604051908190036020019020600101555b610575565b3360028383604051610542929190610b87565b90815260405190819003602001902060020180546001600160a01b03929092166001600160a01b03199092169190911790555b3460028383604051610588929190610b87565b908152602001604051809103902060010160008282546105a89190610bc0565b9250508190555034600360008282546105c19190610bc0565b925050819055506000600283836040516105dc929190610b87565b908152602001604051809103902060010154111561062957600160028383604051610608929190610b87565b908152604051908190036020019020805491151560ff199092169190911790555b5050565b6000546001600160a01b031633146106575760405162461bcd60e51b815260040161029f90610b64565b6004546040516001600160a01b0383169180156108fc02916000818181858888f1935050505015801561068e573d6000803e3d6000fd5b50506000600455565b6000546001600160a01b031633146106c15760405162461bcd60e51b815260040161029f90610b64565b80600284846040516106d4929190610b87565b908152604051908190036020018120805492151560ff19909316929092179091556000906002906107089086908690610b87565b90815260405190819003602001902060010155505050565b6000546001600160a01b0316331461074a5760405162461bcd60e51b815260040161029f90610b64565b6002838360405161075c929190610b87565b9081526020016040518091039020600101548110156107e5578060028484604051610788929190610b87565b908152602001604051809103902060010160008282546107a89190610bad565b9250508190555080600360008282546107c19190610bad565b9250508190555080600460008282546107da9190610bc0565b909155506108999050565b600283836040516107f7929190610b87565b9081526020016040518091039020600101546003600082825461081a9190610bad565b90915550506040516002906108329085908590610b87565b908152602001604051809103902060010154600460008282546108559190610bc0565b92505081905550600060028484604051610870929190610b87565b90815260200160405180910390206001018190555060006002848460405161037a929190610b87565b505050565b336001600160a01b0316600283836040516108ba929190610b87565b908152604051908190036020019020600201546001600160a01b0316146109115760405162461bcd60e51b815260206004820152600b60248201526a2bb937b7339037bbb732b960a91b604482015260640161029f565b60028282604051610923929190610b87565b9081526040519081900360200181206002908101546001600160a01b0316916108fc91906109549086908690610b87565b90815260405190819003602001812060010154801590920291906000818181858888f1935050505015801561098d573d6000803e3d6000fd5b50600282826040516109a0929190610b87565b908152602001604051809103902060010154600360008282546109c39190610bad565b925050819055506000600283836040516109de929190610b87565b908152604051908190036020019020600101555050565b6001600160a01b0381168114610a0a57600080fd5b50565b600060208284031215610a1f57600080fd5b8135610a2a816109f5565b9392505050565b60008083601f840112610a4357600080fd5b50813567ffffffffffffffff811115610a5b57600080fd5b602083019150836020828501011115610a7357600080fd5b9250929050565b60008060208385031215610a8d57600080fd5b823567ffffffffffffffff811115610aa457600080fd5b610ab085828601610a31565b90969095509350505050565b600080600060408486031215610ad157600080fd5b833567ffffffffffffffff811115610ae857600080fd5b610af486828701610a31565b90945092505060208401358015158114610b0d57600080fd5b809150509250925092565b600080600060408486031215610b2d57600080fd5b833567ffffffffffffffff811115610b4457600080fd5b610b5086828701610a31565b909790965060209590950135949350505050565b6020808252600990820152682737ba1037bbb732b960b91b604082015260600190565b8183823760009101908152919050565b634e487b7160e01b600052601160045260246000fd5b8181038181111561033757610337610b97565b8082018082111561033757610337610b9756fea264697066735822122035ed3c5d0f505313c166ccd3ac227fc3888e34f31d1e3f77a9e73edc6f75011664736f6c63430008140033",
  "bytecodeSha1": "319953df4dbf016f50f23105ef8ecb89bd59eab7",
  "compiler": {
    "evm_version": "istanbul",
    "optimizer": {
      "enabled": true,
      "runs": 200
    },
    "version": "0.8.20+commit.a1b79de6"
  },
  "contractName": "GSpot",
  "language": "Solidity",
  "natspec": {
    "kind": "dev",
    "methods": {},
    "version": 1
  },
  "opcodes": "PUSH1 0x80 PUSH1 0x40 MSTORE PUSH1 0x4 CALLDATASIZE LT PUSH2 0xA7 JUMPI PUSH1 0x0 CALLDATALOAD PUSH1 0xE0 SHR DUP1 PUSH4 0x60F54707 GT PUSH2 0x64 JUMPI DUP1 PUSH4 0x60F54707 EQ PUSH2 0x1A3 JUMPI DUP1 PUSH4 0x6FB5D807 EQ PUSH2 0x1C3 JUMPI DUP1 PUSH4 0x8DA5CB5B EQ PUSH2 0x1E3 JUMPI DUP1 PUSH4 0xB4106CDF EQ PUSH2 0x21B JUMPI DUP1 PUSH4 0xD8A0AC97 EQ PUSH2 0x23F JUMPI DUP1 PUSH4 0xF03817D9 EQ PUSH2 0x25F JUMPI PUSH1 0x0 DUP1 REVERT JUMPDEST DUP1 PUSH4 0x13AF4035 EQ PUSH2 0xAC JUMPI DUP1 PUSH4 0x1868291F EQ PUSH2 0xCE JUMPI DUP1 PUSH4 0x3A1C4C2F EQ PUSH2 0x120 JUMPI DUP1 PUSH4 0x453E0535 EQ PUSH2 0x140 JUMPI DUP1 PUSH4 0x46F45B8D EQ PUSH2 0x170 JUMPI DUP1 PUSH4 0x51CFF8D9 EQ PUSH2 0x183 JUMPI JUMPDEST PUSH1 0x0 DUP1 REVERT JUMPDEST CALLVALUE DUP1 ISZERO PUSH2 0xB8 JUMPI PUSH1 0x0 DUP1 REVERT JUMPDEST POP PUSH2 0xCC PUSH2 0xC7 CALLDATASIZE PUSH1 0x4 PUSH2 0xA0D JUMP JUMPDEST PUSH2 0x275 JUMP JUMPDEST STOP JUMPDEST CALLVALUE DUP1 ISZERO PUSH2 0xDA JUMPI PUSH1 0x0 DUP1 REVERT JUMPDEST POP PUSH2 0xEE PUSH2 0xE9 CALLDATASIZE PUSH1 0x4 PUSH2 0xA7A JUMP JUMPDEST PUSH2 0x2CA JUMP JUMPDEST PUSH1 0x40 DUP1 MLOAD DUP3 MLOAD ISZERO ISZERO DUP2 MSTORE PUSH1 0x20 DUP1 DUP5 ADD MLOAD SWAP1 DUP3 ADD MSTORE SWAP2 DUP2 ADD MLOAD PUSH1 0x1 PUSH1 0x1 PUSH1 0xA0 SHL SUB AND SWAP1 DUP3 ADD MSTORE PUSH1 0x60 ADD JUMPDEST PUSH1 0x40 MLOAD DUP1 SWAP2 SUB SWAP1 RETURN JUMPDEST CALLVALUE DUP1 ISZERO PUSH2 0x12C JUMPI PUSH1 0x0 DUP1 REVERT JUMPDEST POP PUSH2 0xCC PUSH2 0x13B CALLDATASIZE PUSH1 0x4 PUSH2 0xABC JUMP JUMPDEST PUSH2 0x33D JUMP JUMPDEST CALLVALUE DUP1 ISZERO PUSH2 0x14C JUMPI PUSH1 0x0 DUP1 REVERT JUMPDEST POP PUSH2 0x160 PUSH2 0x15B CALLDATASIZE PUSH1 0x4 PUSH2 0xA7A JUMP JUMPDEST PUSH2 0x39F JUMP JUMPDEST PUSH1 0x40 MLOAD SWAP1 ISZERO ISZERO DUP2 MSTORE PUSH1 0x20 ADD PUSH2 0x117 JUMP JUMPDEST PUSH2 0xCC PUSH2 0x17E CALLDATASIZE PUSH1 0x4 PUSH2 0xA7A JUMP JUMPDEST PUSH2 0x3CE JUMP JUMPDEST CALLVALUE DUP1 ISZERO PUSH2 0x18F JUMPI PUSH1 0x0 DUP1 REVERT JUMPDEST POP PUSH2 0xCC PUSH2 0x19E CALLDATASIZE PUSH1 0x4 PUSH2 0xA0D JUMP JUMPDEST PUSH2 0x62D JUMP JUMPDEST CALLVALUE DUP1 ISZERO PUSH2 0x1AF JUMPI PUSH1 0x0 DUP1 REVERT JUMPDEST POP PUSH2 0xCC PUSH2 0x1BE CALLDATASIZE PUSH1 0x4 PUSH2 0xABC JUMP JUMPDEST PUSH2 0x697 JUMP JUMPDEST CALLVALUE DUP1 ISZERO PUSH2 0x1CF JUMPI PUSH1 0x0 DUP1 REVERT JUMPDEST POP PUSH2 0xCC PUSH2 0x1DE CALLDATASIZE PUSH1 0x4 PUSH2 0xB18 JUMP JUMPDEST PUSH2 0x720 JUMP JUMPDEST CALLVALUE DUP1 ISZERO PUSH2 0x1EF JUMPI PUSH1 0x0 DUP1 REVERT JUMPDEST POP PUSH1 0x0 SLOAD PUSH2 0x203 SWAP1 PUSH1 0x1 PUSH1 0x1 PUSH1 0xA0 SHL SUB AND DUP2 JUMP JUMPDEST PUSH1 0x40 MLOAD PUSH1 0x1 PUSH1 0x1 PUSH1 0xA0 SHL SUB SWAP1 SWAP2 AND DUP2 MSTORE PUSH1 0x20 ADD PUSH2 0x117 JUMP JUMPDEST CALLVALUE DUP1 ISZERO PUSH2 0x227 JUMPI PUSH1 0x0 DUP1 REVERT JUMPDEST POP PUSH2 0x231 PUSH1 0x4 SLOAD DUP2 JUMP JUMPDEST PUSH1 0x40 MLOAD SWAP1 DUP2 MSTORE PUSH1 0x20 ADD PUSH2 0x117 JUMP JUMPDEST CALLVALUE DUP1 ISZERO PUSH2 0x24B JUMPI PUSH1 0x0 DUP1 REVERT JUMPDEST POP PUSH2 0xCC PUSH2 0x25A CALLDATASIZE PUSH1 0x4 PUSH2 0xA7A JUMP JUMPDEST PUSH2 0x89E JUMP JUMPDEST CALLVALUE DUP1 ISZERO PUSH2 0x26B JUMPI PUSH1 0x0 DUP1 REVERT JUMPDEST POP PUSH2 0x231 PUSH1 0x3 SLOAD DUP2 JUMP JUMPDEST PUSH1 0x0 SLOAD PUSH1 0x1 PUSH1 0x1 PUSH1 0xA0 SHL SUB AND CALLER EQ PUSH2 0x2A8 JUMPI PUSH1 0x40 MLOAD PUSH3 0x461BCD PUSH1 0xE5 SHL DUP2 MSTORE PUSH1 0x4 ADD PUSH2 0x29F SWAP1 PUSH2 0xB64 JUMP JUMPDEST PUSH1 0x40 MLOAD DUP1 SWAP2 SUB SWAP1 REVERT JUMPDEST PUSH1 0x0 DUP1 SLOAD PUSH1 0x1 PUSH1 0x1 PUSH1 0xA0 SHL SUB NOT AND PUSH1 0x1 PUSH1 0x1 PUSH1 0xA0 SHL SUB SWAP3 SWAP1 SWAP3 AND SWAP2 SWAP1 SWAP2 OR SWAP1 SSTORE JUMP JUMPDEST PUSH1 0x40 DUP1 MLOAD PUSH1 0x60 DUP2 ADD DUP3 MSTORE PUSH1 0x0 DUP1 DUP3 MSTORE PUSH1 0x20 DUP3 ADD DUP2 SWAP1 MSTORE DUP2 DUP4 ADD MSTORE SWAP1 MLOAD PUSH1 0x2 SWAP1 PUSH2 0x2F6 SWAP1 DUP6 SWAP1 DUP6 SWAP1 PUSH2 0xB87 JUMP JUMPDEST SWAP1 DUP2 MSTORE PUSH1 0x40 DUP1 MLOAD SWAP2 DUP3 SWAP1 SUB PUSH1 0x20 SWAP1 DUP2 ADD DUP4 KECCAK256 PUSH1 0x60 DUP5 ADD DUP4 MSTORE DUP1 SLOAD PUSH1 0xFF AND ISZERO ISZERO DUP5 MSTORE PUSH1 0x1 DUP2 ADD SLOAD SWAP2 DUP5 ADD SWAP2 SWAP1 SWAP2 MSTORE PUSH1 0x2 ADD SLOAD PUSH1 0x1 PUSH1 0x1 PUSH1 0xA0 SHL SUB AND SWAP1 DUP3 ADD MSTORE SWAP1 POP JUMPDEST SWAP3 SWAP2 POP POP JUMP JUMPDEST PUSH1 0x0 SLOAD PUSH1 0x1 PUSH1 0x1 PUSH1 0xA0 SHL SUB AND CALLER EQ PUSH2 0x367 JUMPI PUSH1 0x40 MLOAD PUSH3 0x461BCD PUSH1 0xE5 SHL DUP2 MSTORE PUSH1 0x4 ADD PUSH2 0x29F SWAP1 PUSH2 0xB64 JUMP JUMPDEST DUP1 PUSH1 0x1 DUP5 DUP5 PUSH1 0x40 MLOAD PUSH2 0x37A SWAP3 SWAP2 SWAP1 PUSH2 0xB87 JUMP JUMPDEST SWAP1 DUP2 MSTORE PUSH1 0x40 MLOAD SWAP1 DUP2 SWAP1 SUB PUSH1 0x20 ADD SWAP1 KECCAK256 DUP1 SLOAD SWAP2 ISZERO ISZERO PUSH1 0xFF NOT SWAP1 SWAP3 AND SWAP2 SWAP1 SWAP2 OR SWAP1 SSTORE POP POP POP JUMP JUMPDEST PUSH1 0x0 PUSH1 0x1 DUP4 DUP4 PUSH1 0x40 MLOAD PUSH2 0x3B3 SWAP3 SWAP2 SWAP1 PUSH2 0xB87 JUMP JUMPDEST SWAP1 DUP2 MSTORE PUSH1 0x40 MLOAD SWAP1 DUP2 SWAP1 SUB PUSH1 0x20 ADD SWAP1 KECCAK256 SLOAD PUSH1 0xFF AND SWAP1 POP SWAP3 SWAP2 POP POP JUMP JUMPDEST PUSH1 0x0 PUSH1 0x1 PUSH1 0x1 PUSH1 0xA0 SHL SUB AND PUSH1 0x2 DUP4 DUP4 PUSH1 0x40 MLOAD PUSH2 0x3EB SWAP3 SWAP2 SWAP1 PUSH2 0xB87 JUMP JUMPDEST SWAP1 DUP2 MSTORE PUSH1 0x40 MLOAD SWAP1 DUP2 SWAP1 SUB PUSH1 0x20 ADD SWAP1 KECCAK256 PUSH1 0x2 ADD SLOAD PUSH1 0x1 PUSH1 0x1 PUSH1 0xA0 SHL SUB AND EQ PUSH2 0x52F JUMPI CALLER PUSH1 0x1 PUSH1 0x1 PUSH1 0xA0 SHL SUB AND PUSH1 0x2 DUP4 DUP4 PUSH1 0x40 MLOAD PUSH2 0x428 SWAP3 SWAP2 SWAP1 PUSH2 0xB87 JUMP JUMPDEST SWAP1 DUP2 MSTORE PUSH1 0x40 MLOAD SWAP1 DUP2 SWAP1 SUB PUSH1 0x20 ADD SWAP1 KECCAK256 PUSH1 0x2 ADD SLOAD PUSH1 0x1 PUSH1 0x1 PUSH1 0xA0 SHL SUB AND EQ PUSH2 0x52A JUMPI PUSH1 0x2 DUP3 DUP3 PUSH1 0x40 MLOAD PUSH2 0x45B SWAP3 SWAP2 SWAP1 PUSH2 0xB87 JUMP JUMPDEST SWAP1 DUP2 MSTORE PUSH1 0x40 MLOAD SWAP1 DUP2 SWAP1 SUB PUSH1 0x20 ADD DUP2 KECCAK256 PUSH1 0x2 SWAP1 DUP2 ADD SLOAD PUSH1 0x1 PUSH1 0x1 PUSH1 0xA0 SHL SUB AND SWAP2 PUSH2 0x8FC SWAP2 SWAP1 PUSH2 0x48C SWAP1 DUP7 SWAP1 DUP7 SWAP1 PUSH2 0xB87 JUMP JUMPDEST SWAP1 DUP2 MSTORE PUSH1 0x40 MLOAD SWAP1 DUP2 SWAP1 SUB PUSH1 0x20 ADD DUP2 KECCAK256 PUSH1 0x1 ADD SLOAD DUP1 ISZERO SWAP1 SWAP3 MUL SWAP2 SWAP1 PUSH1 0x0 DUP2 DUP2 DUP2 DUP6 DUP9 DUP9 CALL SWAP4 POP POP POP POP ISZERO DUP1 ISZERO PUSH2 0x4C5 JUMPI RETURNDATASIZE PUSH1 0x0 DUP1 RETURNDATACOPY RETURNDATASIZE PUSH1 0x0 REVERT JUMPDEST POP PUSH1 0x2 DUP3 DUP3 PUSH1 0x40 MLOAD PUSH2 0x4D8 SWAP3 SWAP2 SWAP1 PUSH2 0xB87 JUMP JUMPDEST SWAP1 DUP2 MSTORE PUSH1 0x20 ADD PUSH1 0x40 MLOAD DUP1 SWAP2 SUB SWAP1 KECCAK256 PUSH1 0x1 ADD SLOAD PUSH1 0x3 PUSH1 0x0 DUP3 DUP3 SLOAD PUSH2 0x4FB SWAP2 SWAP1 PUSH2 0xBAD JUMP JUMPDEST SWAP3 POP POP DUP2 SWAP1 SSTORE POP PUSH1 0x0 PUSH1 0x2 DUP4 DUP4 PUSH1 0x40 MLOAD PUSH2 0x516 SWAP3 SWAP2 SWAP1 PUSH2 0xB87 JUMP JUMPDEST SWAP1 DUP2 MSTORE PUSH1 0x40 MLOAD SWAP1 DUP2 SWAP1 SUB PUSH1 0x20 ADD SWAP1 KECCAK256 PUSH1 0x1 ADD SSTORE JUMPDEST PUSH2 0x575 JUMP JUMPDEST CALLER PUSH1 0x2 DUP4 DUP4 PUSH1 0x40 MLOAD PUSH2 0x542 SWAP3 SWAP2 SWAP1 PUSH2 0xB87 JUMP JUMPDEST SWAP1 DUP2 MSTORE PUSH1 0x40 MLOAD SWAP1 DUP2 SWAP1 SUB PUSH1 0x20 ADD SWAP1 KECCAK256 PUSH1 0x2 ADD DUP1 SLOAD PUSH1 0x1 PUSH1 0x1 PUSH1 0xA0 SHL SUB SWAP3 SWAP1 SWAP3 AND PUSH1 0x1 PUSH1 0x1 PUSH1 0xA0 SHL SUB NOT SWAP1 SWAP3 AND SWAP2 SWAP1 SWAP2 OR SWAP1 SSTORE JUMPDEST CALLVALUE PUSH1 0x2 DUP4 DUP4 PUSH1 0x40 MLOAD PUSH2 0x588 SWAP3 SWAP2 SWAP1 PUSH2 0xB87 JUMP JUMPDEST SWAP1 DUP2 MSTORE PUSH1 0x20 ADD PUSH1 0x40 MLOAD DUP1 SWAP2 SUB SWAP1 KECCAK256 PUSH1 0x1 ADD PUSH1 0x0 DUP3 DUP3 SLOAD PUSH2 0x5A8 SWAP2 SWAP1 PUSH2 0xBC0 JUMP JUMPDEST SWAP3 POP POP DUP2 SWAP1 SSTORE POP CALLVALUE PUSH1 0x3 PUSH1 0x0 DUP3 DUP3 SLOAD PUSH2 0x5C1 SWAP2 SWAP1 PUSH2 0xBC0 JUMP JUMPDEST SWAP3 POP POP DUP2 SWAP1 SSTORE POP PUSH1 0x0 PUSH1 0x2 DUP4 DUP4 PUSH1 0x40 MLOAD PUSH2 0x5DC SWAP3 SWAP2 SWAP1 PUSH2 0xB87 JUMP JUMPDEST SWAP1 DUP2 MSTORE PUSH1 0x20 ADD PUSH1 0x40 MLOAD DUP1 SWAP2 SUB SWAP1 KECCAK256 PUSH1 0x1 ADD SLOAD GT ISZERO PUSH2 0x629 JUMPI PUSH1 0x1 PUSH1 0x2 DUP4 DUP4 PUSH1 0x40 MLOAD PUSH2 0x608 SWAP3 SWAP2 SWAP1 PUSH2 0xB87 JUMP JUMPDEST SWAP1 DUP2 MSTORE PUSH1 0x40 MLOAD SWAP1 DUP2 SWAP1 SUB PUSH1 0x20 ADD SWAP1 KECCAK256 DUP1 SLOAD SWAP2 ISZERO ISZERO PUSH1 0xFF NOT SWAP1 SWAP3 AND SWAP2 SWAP1 SWAP2 OR SWAP1 SSTORE JUMPDEST POP POP JUMP JUMPDEST PUSH1 0x0 SLOAD PUSH1 0x1 PUSH1 0x1 PUSH1 0xA0 SHL SUB AND CALLER EQ PUSH2 0x657 JUMPI PUSH1 0x40 MLOAD PUSH3 0x461BCD PUSH1 0xE5 SHL DUP2 MSTORE PUSH1 0x4 ADD PUSH2 0x29F SWAP1 PUSH2 0xB64 JUMP JUMPDEST PUSH1 0x4 SLOAD PUSH1 0x40 MLOAD PUSH1 0x1 PUSH1 0x1 PUSH1 0xA0 SHL SUB DUP4 AND SWAP2 DUP1 ISZERO PUSH2 0x8FC MUL SWAP2 PUSH1 0x0 DUP2 DUP2 DUP2 DUP6 DUP9 DUP9 CALL SWAP4 POP POP POP POP ISZERO DUP1 ISZERO PUSH2 0x68E JUMPI RETURNDATASIZE PUSH1 0x0 DUP1 RETURNDATACOPY RETURNDATASIZE PUSH1 0x0 REVERT JUMPDEST POP POP PUSH1 0x0 PUSH1 0x4 SSTORE JUMP JUMPDEST PUSH1 0x0 SLOAD PUSH1 0x1 PUSH1 0x1 PUSH1 0xA0 SHL SUB AND CALLER EQ PUSH2 0x6C1 JUMPI PUSH1 0x40 MLOAD PUSH3 0x461BCD PUSH1 0xE5 SHL DUP2 MSTORE PUSH1 0x4 ADD PUSH2 0x29F SWAP1 PUSH2 0xB64 JUMP JUMPDEST DUP1 PUSH1 0x2 DUP5 DUP5 PUSH1 0x40 MLOAD PUSH2 0x6D4 SWAP3 SWAP2 SWAP1 PUSH2 0xB87 JUMP JUMPDEST SWAP1 DUP2 MSTORE PUSH1 0x40 MLOAD SWAP1 DUP2 SWAP1 SUB PUSH1 0x20 ADD DUP2 KECCAK256 DUP1 SLOAD SWAP3 ISZERO ISZERO PUSH1 0xFF NOT SWAP1 SWAP4 AND SWAP3 SWAP1 SWAP3 OR SWAP1 SWAP2 SSTORE PUSH1 0x0 SWAP1 PUSH1 0x2 SWAP1 PUSH2 0x708 SWAP1 DUP7 SWAP1 DUP7 SWAP1 PUSH2 0xB87 JUMP JUMPDEST SWAP1 DUP2 MSTORE PUSH1 0x40 MLOAD SWAP1 DUP2 SWAP1 SUB PUSH1 0x20 ADD SWAP1 KECCAK256 PUSH1 0x1 ADD SSTORE POP POP POP JUMP JUMPDEST PUSH1 0x0 SLOAD PUSH1 0x1 PUSH1 0x1 PUSH1 0xA0 SHL SUB AND CALLER EQ PUSH2 0x74A JUMPI PUSH1 0x40 MLOAD PUSH3 0x461BCD PUSH1 0xE5 SHL DUP2 MSTORE PUSH1 0x4 ADD PUSH2 0x29F SWAP1 PUSH2 0xB64 JUMP JUMPDEST PUSH1 0x2 DUP4 DUP4 PUSH1 0x40 MLOAD PUSH2 0x75C SWAP3 SWAP2 SWAP1 PUSH2 0xB87 JUMP JUMPDEST SWAP1 DUP2 MSTORE PUSH1 0x20 ADD PUSH1 0x40 MLOAD DUP1 SWAP2 SUB SWAP1 KECCAK256 PUSH1 0x1 ADD SLOAD DUP2 LT ISZERO PUSH2 0x7E5 JUMPI DUP1 PUSH1 0x2 DUP5 DUP5 PUSH1 0x40 MLOAD PUSH2 0x788 SWAP3 SWAP2 SWAP1 PUSH2 0xB87 JUMP JUMPDEST SWAP1 DUP2 MSTORE PUSH1 0x20 ADD PUSH1 0x40 MLOAD DUP1 SWAP2 SUB SWAP1 KECCAK256 PUSH1 0x1 ADD PUSH1 0x0 DUP3 DUP3 SLOAD PUSH2 0x7A8 SWAP2 SWAP1 PUSH2 0xBAD JUMP JUMPDEST SWAP3 POP POP DUP2 SWAP1 SSTORE POP DUP1 PUSH1 0x3 PUSH1 0x0 DUP3 DUP3 SLOAD PUSH2 0x7C1 SWAP2 SWAP1 PUSH2 0xBAD JUMP JUMPDEST SWAP3 POP POP DUP2 SWAP1 SSTORE POP DUP1 PUSH1 0x4 PUSH1 0x0 DUP3 DUP3 SLOAD PUSH2 0x7DA SWAP2 SWAP1 PUSH2 0xBC0 JUMP JUMPDEST SWAP1 SWAP2 SSTORE POP PUSH2 0x899 SWAP1 POP JUMP JUMPDEST PUSH1 0x2 DUP4 DUP4 PUSH1 0x40 MLOAD PUSH2 0x7F7 SWAP3 SWAP2 SWAP1 PUSH2 0xB87 JUMP JUMPDEST SWAP1 DUP2 MSTORE PUSH1 0x20 ADD PUSH1 0x40 MLOAD DUP1 SWAP2 SUB SWAP1 KECCAK256 PUSH1 0x1 ADD SLOAD PUSH1 0x3 PUSH1 0x0 DUP3 DUP3 SLOAD PUSH2 0x81A SWAP2 SWAP1 PUSH2 0xBAD JUMP JUMPDEST SWAP1 SWAP2 SSTORE POP POP PUSH1 0x40 MLOAD PUSH1 0x2 SWAP1 PUSH2 0x832 SWAP1 DUP6 SWAP1 DUP6 SWAP1 PUSH2 0xB87 JUMP JUMPDEST SWAP1 DUP2 MSTORE PUSH1 0x20 ADD PUSH1 0x40 MLOAD DUP1 SWAP2 SUB SWAP1 KECCAK256 PUSH1 0x1 ADD SLOAD PUSH1 0x4 PUSH1 0x0 DUP3 DUP3 SLOAD PUSH2 0x855 SWAP2 SWAP1 PUSH2 0xBC0 JUMP JUMPDEST SWAP3 POP POP DUP2 SWAP1 SSTORE POP PUSH1 0x0 PUSH1 0x2 DUP5 DUP5 PUSH1 0x40 MLOAD PUSH2 0x870 SWAP3 SWAP2 SWAP1 PUSH2 0xB87 JUMP JUMPDEST SWAP1 DUP2 MSTORE PUSH1 0x20 ADD PUSH1 0x40 MLOAD DUP1 SWAP2 SUB SWAP1 KECCAK256 PUSH1 0x1 ADD DUP2 SWAP1 SSTORE POP PUSH1 0x0 PUSH1 0x2 DUP5 DUP5 PUSH1 0x40 MLOAD PUSH2 0x37A SWAP3 SWAP2 SWAP1 PUSH2 0xB87 JUMP JUMPDEST POP POP POP JUMP JUMPDEST CALLER PUSH1 0x1 PUSH1 0x1 PUSH1 0xA0 SHL SUB AND PUSH1 0x2 DUP4 DUP4 PUSH1 0x40 MLOAD PUSH2 0x8BA SWAP3 SWAP2 SWAP1 PUSH2 0xB87 JUMP JUMPDEST SWAP1 DUP2 MSTORE PUSH1 0x40 MLOAD SWAP1 DUP2 SWAP1 SUB PUSH1 0x20 ADD SWAP1 KECCAK256 PUSH1 0x2 ADD SLOAD PUSH1 0x1 PUSH1 0x1 PUSH1 0xA0 SHL SUB AND EQ PUSH2 0x911 JUMPI PUSH1 0x40 MLOAD PUSH3 0x461BCD PUSH1 0xE5 SHL DUP2 MSTORE PUSH1 0x20 PUSH1 0x4 DUP3 ADD MSTORE PUSH1 0xB PUSH1 0x24 DUP3 ADD MSTORE PUSH11 0x2BB937B7339037BBB732B9 PUSH1 0xA9 SHL PUSH1 0x44 DUP3 ADD MSTORE PUSH1 0x64 ADD PUSH2 0x29F JUMP JUMPDEST PUSH1 0x2 DUP3 DUP3 PUSH1 0x40 MLOAD PUSH2 0x923 SWAP3 SWAP2 SWAP1 PUSH2 0xB87 JUMP JUMPDEST SWAP1 DUP2 MSTORE PUSH1 0x40 MLOAD SWAP1 DUP2 SWAP1 SUB PUSH1 0x20 ADD DUP2 KECCAK256 PUSH1 0x2 SWAP1 DUP2 ADD SLOAD PUSH1 0x1 PUSH1 0x1 PUSH1 0xA0 SHL SUB AND SWAP2 PUSH2 0x8FC SWAP2 SWAP1 PUSH2 0x954 SWAP1 DUP7 SWAP1 DUP7 SWAP1 PUSH2 0xB87 JUMP JUMPDEST SWAP1 DUP2 MSTORE PUSH1 0x40 MLOAD SWAP1 DUP2 SWAP1 SUB PUSH1 0x20 ADD DUP2 KECCAK256 PUSH1 0x1 ADD SLOAD DUP1 ISZERO SWAP1 SWAP3 MUL SWAP2 SWAP1 PUSH1 0x0 DUP2 DUP2 DUP2 DUP6 DUP9 DUP9 CALL SWAP4 POP POP POP POP ISZERO DUP1 ISZERO PUSH2 0x98D JUMPI RETURNDATASIZE PUSH1 0x0 DUP1 RETURNDATACOPY RETURNDATASIZE PUSH1 0x0 REVERT JUMPDEST POP PUSH1 0x2 DUP3 DUP3 PUSH1 0x40 MLOAD PUSH2 0x9A0 SWAP3 SWAP2 SWAP1 PUSH2 0xB87 JUMP JUMPDEST SWAP1 DUP2 MSTORE PUSH1 0x20 ADD PUSH1 0x40 MLOAD DUP1 SWAP2 SUB SWAP1 KECCAK256 PUSH1 0x1 ADD SLOAD PUSH1 0x3 PUSH1 0x0 DUP3 DUP3 SLOAD PUSH2 0x9C3 SWAP2 SWAP1 PUSH2 0xBAD JUMP JUMPDEST SWAP3 POP POP DUP2 SWAP1 SSTORE POP PUSH1 0x0 PUSH1 0x2 DUP4 DUP4 PUSH1 0x40 MLOAD PUSH2 0x9DE SWAP3 SWAP2 SWAP1 PUSH2 0xB87 JUMP JUMPDEST SWAP1 DUP2 MSTORE PUSH1 0x40 MLOAD SWAP1 DUP2 SWAP1 SUB PUSH1 0x20 ADD SWAP1 KECCAK256 PUSH1 0x1 ADD SSTORE POP POP JUMP JUMPDEST PUSH1 0x1 PUSH1 0x1 PUSH1 0xA0 SHL SUB DUP2 AND DUP2 EQ PUSH2 0xA0A JUMPI PUSH1 0x0 DUP1 REVERT JUMPDEST POP JUMP JUMPDEST PUSH1 0x0 PUSH1 0x20 DUP3 DUP5 SUB SLT ISZERO PUSH2 0xA1F JUMPI PUSH1 0x0 DUP1 REVERT JUMPDEST DUP2 CALLDATALOAD PUSH2 0xA2A DUP2 PUSH2 0x9F5 JUMP JUMPDEST SWAP4 SWAP3 POP POP POP JUMP JUMPDEST PUSH1 0x0 DUP1 DUP4 PUSH1 0x1F DUP5 ADD SLT PUSH2 0xA43 JUMPI PUSH1 0x0 DUP1 REVERT JUMPDEST POP DUP2 CALLDATALOAD PUSH8 0xFFFFFFFFFFFFFFFF DUP2 GT ISZERO PUSH2 0xA5B JUMPI PUSH1 0x0 DUP1 REVERT JUMPDEST PUSH1 0x20 DUP4 ADD SWAP2 POP DUP4 PUSH1 0x20 DUP3 DUP6 ADD ADD GT ISZERO PUSH2 0xA73 JUMPI PUSH1 0x0 DUP1 REVERT JUMPDEST SWAP3 POP SWAP3 SWAP1 POP JUMP JUMPDEST PUSH1 0x0 DUP1 PUSH1 0x20 DUP4 DUP6 SUB SLT ISZERO PUSH2 0xA8D JUMPI PUSH1 0x0 DUP1 REVERT JUMPDEST DUP3 CALLDATALOAD PUSH8 0xFFFFFFFFFFFFFFFF DUP2 GT ISZERO PUSH2 0xAA4 JUMPI PUSH1 0x0 DUP1 REVERT JUMPDEST PUSH2 0xAB0 DUP6 DUP3 DUP7 ADD PUSH2 0xA31 JUMP JUMPDEST SWAP1 SWAP7 SWAP1 SWAP6 POP SWAP4 POP POP POP POP JUMP JUMPDEST PUSH1 0x0 DUP1 PUSH1 0x0 PUSH1 0x40 DUP5 DUP7 SUB SLT ISZERO PUSH2 0xAD1 JUMPI PUSH1 0x0 DUP1 REVERT JUMPDEST DUP4 CALLDATALOAD PUSH8 0xFFFFFFFFFFFFFFFF DUP2 GT ISZERO PUSH2 0xAE8 JUMPI PUSH1 0x0 DUP1 REVERT JUMPDEST PUSH2 0xAF4 DUP7 DUP3 DUP8 ADD PUSH2 0xA31 JUMP JUMPDEST SWAP1 SWAP5 POP SWAP3 POP POP PUSH1 0x20 DUP5 ADD CALLDATALOAD DUP1 ISZERO ISZERO DUP2 EQ PUSH2 0xB0D JUMPI PUSH1 0x0 DUP1 REVERT JUMPDEST DUP1 SWAP2 POP POP SWAP3 POP SWAP3 POP SWAP3 JUMP JUMPDEST PUSH1 0x0 DUP1 PUSH1 0x0 PUSH1 0x40 DUP5 DUP7 SUB SLT ISZERO PUSH2 0xB2D JUMPI PUSH1 0x0 DUP1 REVERT JUMPDEST DUP4 CALLDATALOAD PUSH8 0xFFFFFFFFFFFFFFFF DUP2 GT ISZERO PUSH2 0xB44 JUMPI PUSH1 0x0 DUP1 REVERT JUMPDEST PUSH2 0xB50 DUP7 DUP3 DUP8 ADD PUSH2 0xA31 JUMP JUMPDEST SWAP1 SWAP8 SWAP1 SWAP7 POP PUSH1 0x20 SWAP6 SWAP1 SWAP6 ADD CALLDATALOAD SWAP5 SWAP4 POP POP POP POP JUMP JUMPDEST PUSH1 0x20 DUP1 DUP3 MSTORE PUSH1 0x9 SWAP1 DUP3 ADD MSTORE PUSH9 0x2737BA1037BBB732B9 PUSH1 0xB9 SHL PUSH1 0x40 DUP3 ADD MSTORE PUSH1 0x60 ADD SWAP1 JUMP JUMPDEST DUP2 DUP4 DUP3 CALLDATACOPY PUSH1 0x0 SWAP2 ADD SWAP1 DUP2 MSTORE SWAP2 SWAP1 POP JUMP JUMPDEST PUSH4 0x4E487B71 PUSH1 0xE0 SHL PUSH1 0x0 MSTORE PUSH1 0x11 PUSH1 0x4 MSTORE PUSH1 0x24 PUSH1 0x0 REVERT JUMPDEST DUP2 DUP2 SUB DUP2 DUP2 GT ISZERO PUSH2 0x337 JUMPI PUSH2 0x337 PUSH2 0xB97 JUMP JUMPDEST DUP1 DUP3 ADD DUP1 DUP3 GT ISZERO PUSH2 0x337 JUMPI PUSH2 0x337 PUSH2 0xB97 JUMP INVALID LOG2 PUSH5 0x6970667358 0x22 SLT KECCAK256 CALLDATALOAD 0xED EXTCODECOPY 0x5D 0xF POP MSTORE8 SGT 0xC1 PUSH7 0xCCD3AC227FC388 DUP15 CALLVALUE RETURN SAR 0x1E EXTCODEHASH PUSH24 0xA9E73EDC6F75011664736F6C634300081400330000000000 ",
  "sha1": "7d2e2c68c0e97e9b038e972515b8fc76480935e6",
  "source": "pragma solidity ^0.8.0;\n\nstruct Ip {\n    bool enable;\n    uint256 stake;\n    address payable owner;\n}\n\ncontract GSpot {\n\n    constructor() {\n        owner = msg.sender;\n    }\n\n    ////////////////////////////////////// Owner ///////////////////////////////////////////\n    //Owner of the contract\n\taddress public owner;\n\n\tmodifier isOwner() {\n        require(msg.sender == owner, \"Not owner\");\n        _;\n    }\n\n    function setOwner(address _owner) public isOwner() {\n\t\towner = _owner;\n\t}\n\n    ////////////////////////////////////// Antenna ///////////////////////////////////////////\n    //Activate antenna\n    mapping(string => bool) private running;\n\n    function getRunning(string calldata antenna) public view returns(bool){\n        return running[antenna];\n    }\n\n    function setRunning(string calldata antenna, bool state) public isOwner() {\n\t\trunning[antenna] = state;\n\t}\n\n    ////////////////////////////////////// Ip ///////////////////////////////////////////\n    //Activate global\n    mapping(string => Ip) private ip_map;\n\n    function getIp(string calldata ip) public view returns(Ip memory){\n        return ip_map[ip];\n    }\n\n    function setIp(string calldata ip, bool enable) public isOwner() {\n        ip_map[ip].enable = enable;\n        ip_map[ip].stake = 0;\n\t}\n\n    function bill(string calldata ip, uint256 amount) public isOwner() {\n        if (amount < ip_map[ip].stake){\n            ip_map[ip].stake -= amount;\n            userStake -= amount;\n            ownerStake += amount;\n        } else {\n            userStake -= ip_map[ip].stake;\n            ownerStake += ip_map[ip].stake;\n            ip_map[ip].stake = 0;\n            ip_map[ip].enable = false;\n        }\n    }\n\n    function stake(string calldata ip) public payable {\n        if (ip_map[ip].owner != address(0)){\n            if (ip_map[ip].owner != msg.sender){\n                ip_map[ip].owner.transfer(ip_map[ip].stake);\n                userStake -= ip_map[ip].stake;\n                ip_map[ip].stake = 0;\n            }\n        } else {\n            ip_map[ip].owner = payable(msg.sender);\n        }\n        ip_map[ip].stake += msg.value;\n        userStake += msg.value;\n        if (ip_map[ip].stake > 0){\n            ip_map[ip].enable = true;\n        }\n    }\n\n    function unstake(string calldata ip) public {\n        require(ip_map[ip].owner == msg.sender, \"Wrong owner\");\n        ip_map[ip].owner.transfer(ip_map[ip].stake);\n        userStake -= ip_map[ip].stake;\n        ip_map[ip].stake = 0;\n    }\n\n    ////////////////////////////////////// Stake ///////////////////////////////////////////\n    //Activate global\n    uint256 public userStake;\n    uint256 public ownerStake;\n\n    function withdraw(address payable to) public isOwner() {\n        to.transfer(ownerStake);\n        ownerStake = 0;\n    }\n\n}\n",
  "sourcePath": "contracts/GSpot.sol",
  "type": "contract"
}